{
  "_format": "hh-sol-artifact-1",
  "contractName": "EventNFT",
  "sourceName": "contracts/EventNFT.sol",
  "abi": [
    {
      "inputs": [],
      "stateMutability": "payable",
      "type": "constructor"
    },
    {
      "inputs": [
        {
          "internalType": "address",
          "name": "sender",
          "type": "address"
        },
        {
          "internalType": "uint256",
          "name": "tokenId",
          "type": "uint256"
        },
        {
          "internalType": "address",
          "name": "owner",
          "type": "address"
        }
      ],
      "name": "ERC721IncorrectOwner",
      "type": "error"
    },
    {
      "inputs": [
        {
          "internalType": "address",
          "name": "operator",
          "type": "address"
        },
        {
          "internalType": "uint256",
          "name": "tokenId",
          "type": "uint256"
        }
      ],
      "name": "ERC721InsufficientApproval",
      "type": "error"
    },
    {
      "inputs": [
        {
          "internalType": "address",
          "name": "approver",
          "type": "address"
        }
      ],
      "name": "ERC721InvalidApprover",
      "type": "error"
    },
    {
      "inputs": [
        {
          "internalType": "address",
          "name": "operator",
          "type": "address"
        }
      ],
      "name": "ERC721InvalidOperator",
      "type": "error"
    },
    {
      "inputs": [
        {
          "internalType": "address",
          "name": "owner",
          "type": "address"
        }
      ],
      "name": "ERC721InvalidOwner",
      "type": "error"
    },
    {
      "inputs": [
        {
          "internalType": "address",
          "name": "receiver",
          "type": "address"
        }
      ],
      "name": "ERC721InvalidReceiver",
      "type": "error"
    },
    {
      "inputs": [
        {
          "internalType": "address",
          "name": "sender",
          "type": "address"
        }
      ],
      "name": "ERC721InvalidSender",
      "type": "error"
    },
    {
      "inputs": [
        {
          "internalType": "uint256",
          "name": "tokenId",
          "type": "uint256"
        }
      ],
      "name": "ERC721NonexistentToken",
      "type": "error"
    },
    {
      "inputs": [
        {
          "internalType": "address",
          "name": "owner",
          "type": "address"
        }
      ],
      "name": "OwnableInvalidOwner",
      "type": "error"
    },
    {
      "inputs": [
        {
          "internalType": "address",
          "name": "account",
          "type": "address"
        }
      ],
      "name": "OwnableUnauthorizedAccount",
      "type": "error"
    },
    {
      "anonymous": false,
      "inputs": [
        {
          "indexed": true,
          "internalType": "address",
          "name": "owner",
          "type": "address"
        },
        {
          "indexed": true,
          "internalType": "address",
          "name": "approved",
          "type": "address"
        },
        {
          "indexed": true,
          "internalType": "uint256",
          "name": "tokenId",
          "type": "uint256"
        }
      ],
      "name": "Approval",
      "type": "event"
    },
    {
      "anonymous": false,
      "inputs": [
        {
          "indexed": true,
          "internalType": "address",
          "name": "owner",
          "type": "address"
        },
        {
          "indexed": true,
          "internalType": "address",
          "name": "operator",
          "type": "address"
        },
        {
          "indexed": false,
          "internalType": "bool",
          "name": "approved",
          "type": "bool"
        }
      ],
      "name": "ApprovalForAll",
      "type": "event"
    },
    {
      "anonymous": false,
      "inputs": [
        {
          "indexed": false,
          "internalType": "uint256",
          "name": "_fromTokenId",
          "type": "uint256"
        },
        {
          "indexed": false,
          "internalType": "uint256",
          "name": "_toTokenId",
          "type": "uint256"
        }
      ],
      "name": "BatchMetadataUpdate",
      "type": "event"
    },
    {
      "anonymous": false,
      "inputs": [
        {
          "indexed": false,
          "internalType": "uint256",
          "name": "_tokenId",
          "type": "uint256"
        }
      ],
      "name": "MetadataUpdate",
      "type": "event"
    },
    {
      "anonymous": false,
      "inputs": [
        {
          "indexed": true,
          "internalType": "address",
          "name": "previousOwner",
          "type": "address"
        },
        {
          "indexed": true,
          "internalType": "address",
          "name": "newOwner",
          "type": "address"
        }
      ],
      "name": "OwnershipTransferred",
      "type": "event"
    },
    {
      "anonymous": false,
      "inputs": [
        {
          "indexed": true,
          "internalType": "address",
          "name": "from",
          "type": "address"
        },
        {
          "indexed": true,
          "internalType": "address",
          "name": "to",
          "type": "address"
        },
        {
          "indexed": true,
          "internalType": "uint256",
          "name": "tokenId",
          "type": "uint256"
        }
      ],
      "name": "Transfer",
      "type": "event"
    },
    {
      "inputs": [
        {
          "internalType": "address",
          "name": "to",
          "type": "address"
        },
        {
          "internalType": "uint256",
          "name": "tokenId",
          "type": "uint256"
        }
      ],
      "name": "approve",
      "outputs": [],
      "stateMutability": "nonpayable",
      "type": "function"
    },
    {
      "inputs": [
        {
          "internalType": "address",
          "name": "owner",
          "type": "address"
        }
      ],
      "name": "balanceOf",
      "outputs": [
        {
          "internalType": "uint256",
          "name": "",
          "type": "uint256"
        }
      ],
      "stateMutability": "view",
      "type": "function"
    },
    {
      "inputs": [
        {
          "internalType": "uint256",
          "name": "tokenId",
          "type": "uint256"
        }
      ],
      "name": "getApproved",
      "outputs": [
        {
          "internalType": "address",
          "name": "",
          "type": "address"
        }
      ],
      "stateMutability": "view",
      "type": "function"
    },
    {
      "inputs": [
        {
          "internalType": "address",
          "name": "owner",
          "type": "address"
        },
        {
          "internalType": "address",
          "name": "operator",
          "type": "address"
        }
      ],
      "name": "isApprovedForAll",
      "outputs": [
        {
          "internalType": "bool",
          "name": "",
          "type": "bool"
        }
      ],
      "stateMutability": "view",
      "type": "function"
    },
    {
      "inputs": [
        {
          "internalType": "string",
          "name": "_tokenURI",
          "type": "string"
        }
      ],
      "name": "mint",
      "outputs": [
        {
          "internalType": "uint256",
          "name": "",
          "type": "uint256"
        }
      ],
      "stateMutability": "nonpayable",
      "type": "function"
    },
    {
      "inputs": [],
      "name": "name",
      "outputs": [
        {
          "internalType": "string",
          "name": "",
          "type": "string"
        }
      ],
      "stateMutability": "view",
      "type": "function"
    },
    {
      "inputs": [],
      "name": "owner",
      "outputs": [
        {
          "internalType": "address",
          "name": "",
          "type": "address"
        }
      ],
      "stateMutability": "view",
      "type": "function"
    },
    {
      "inputs": [
        {
          "internalType": "uint256",
          "name": "tokenId",
          "type": "uint256"
        }
      ],
      "name": "ownerOf",
      "outputs": [
        {
          "internalType": "address",
          "name": "",
          "type": "address"
        }
      ],
      "stateMutability": "view",
      "type": "function"
    },
    {
      "inputs": [],
      "name": "renounceOwnership",
      "outputs": [],
      "stateMutability": "nonpayable",
      "type": "function"
    },
    {
      "inputs": [
        {
          "internalType": "address",
          "name": "from",
          "type": "address"
        },
        {
          "internalType": "address",
          "name": "to",
          "type": "address"
        },
        {
          "internalType": "uint256",
          "name": "tokenId",
          "type": "uint256"
        }
      ],
      "name": "safeTransferFrom",
      "outputs": [],
      "stateMutability": "nonpayable",
      "type": "function"
    },
    {
      "inputs": [
        {
          "internalType": "address",
          "name": "from",
          "type": "address"
        },
        {
          "internalType": "address",
          "name": "to",
          "type": "address"
        },
        {
          "internalType": "uint256",
          "name": "tokenId",
          "type": "uint256"
        },
        {
          "internalType": "bytes",
          "name": "data",
          "type": "bytes"
        }
      ],
      "name": "safeTransferFrom",
      "outputs": [],
      "stateMutability": "nonpayable",
      "type": "function"
    },
    {
      "inputs": [
        {
          "internalType": "address",
          "name": "operator",
          "type": "address"
        },
        {
          "internalType": "bool",
          "name": "approved",
          "type": "bool"
        }
      ],
      "name": "setApprovalForAll",
      "outputs": [],
      "stateMutability": "nonpayable",
      "type": "function"
    },
    {
      "inputs": [
        {
          "internalType": "bytes4",
          "name": "interfaceId",
          "type": "bytes4"
        }
      ],
      "name": "supportsInterface",
      "outputs": [
        {
          "internalType": "bool",
          "name": "",
          "type": "bool"
        }
      ],
      "stateMutability": "view",
      "type": "function"
    },
    {
      "inputs": [],
      "name": "symbol",
      "outputs": [
        {
          "internalType": "string",
          "name": "",
          "type": "string"
        }
      ],
      "stateMutability": "view",
      "type": "function"
    },
    {
      "inputs": [
        {
          "internalType": "uint256",
          "name": "tokenId",
          "type": "uint256"
        }
      ],
      "name": "tokenURI",
      "outputs": [
        {
          "internalType": "string",
          "name": "",
          "type": "string"
        }
      ],
      "stateMutability": "view",
      "type": "function"
    },
    {
      "inputs": [
        {
          "internalType": "address",
          "name": "from",
          "type": "address"
        },
        {
          "internalType": "address",
          "name": "to",
          "type": "address"
        },
        {
          "internalType": "uint256",
          "name": "tokenId",
          "type": "uint256"
        }
      ],
      "name": "transferFrom",
      "outputs": [],
      "stateMutability": "nonpayable",
      "type": "function"
    },
    {
      "inputs": [
        {
          "internalType": "address",
          "name": "newOwner",
          "type": "address"
        }
      ],
      "name": "transferOwnership",
      "outputs": [],
      "stateMutability": "nonpayable",
      "type": "function"
    }
  ],
  "bytecode": "0x6080604052336040518060400160405280600981526020017f4162616b75204e465400000000000000000000000000000000000000000000008152506040518060400160405280600881526020017f4142414b554e4654000000000000000000000000000000000000000000000000815250816000908162000082919062000464565b50806001908162000094919062000464565b505050600073ffffffffffffffffffffffffffffffffffffffff168173ffffffffffffffffffffffffffffffffffffffff16036200010c5760006040517f1e4fbdf700000000000000000000000000000000000000000000000000000000815260040162000103919062000590565b60405180910390fd5b6200011d816200012460201b60201c565b50620005ad565b6000600760009054906101000a900473ffffffffffffffffffffffffffffffffffffffff16905081600760006101000a81548173ffffffffffffffffffffffffffffffffffffffff021916908373ffffffffffffffffffffffffffffffffffffffff1602179055508173ffffffffffffffffffffffffffffffffffffffff168173ffffffffffffffffffffffffffffffffffffffff167f8be0079c531659141344cd1fd0a4f28419497f9722a3daafe3b4186f6b6457e060405160405180910390a35050565b600081519050919050565b7f4e487b7100000000000000000000000000000000000000000000000000000000600052604160045260246000fd5b7f4e487b7100000000000000000000000000000000000000000000000000000000600052602260045260246000fd5b600060028204905060018216806200026c57607f821691505b60208210810362000282576200028162000224565b5b50919050565b60008190508160005260206000209050919050565b60006020601f8301049050919050565b600082821b905092915050565b600060088302620002ec7fffffffffffffffffffffffffffffffffffffffffffffffffffffffffffffffff82620002ad565b620002f88683620002ad565b95508019841693508086168417925050509392505050565b6000819050919050565b6000819050919050565b6000620003456200033f620003398462000310565b6200031a565b62000310565b9050919050565b6000819050919050565b620003618362000324565b6200037962000370826200034c565b848454620002ba565b825550505050565b600090565b6200039062000381565b6200039d81848462000356565b505050565b5b81811015620003c557620003b960008262000386565b600181019050620003a3565b5050565b601f8211156200041457620003de8162000288565b620003e9846200029d565b81016020851015620003f9578190505b6200041162000408856200029d565b830182620003a2565b50505b505050565b600082821c905092915050565b6000620004396000198460080262000419565b1980831691505092915050565b600062000454838362000426565b9150826002028217905092915050565b6200046f82620001ea565b67ffffffffffffffff8111156200048b576200048a620001f5565b5b62000497825462000253565b620004a4828285620003c9565b600060209050601f831160018114620004dc5760008415620004c7578287015190505b620004d3858262000446565b86555062000543565b601f198416620004ec8662000288565b60005b828110156200051657848901518255600182019150602085019450602081019050620004ef565b8683101562000536578489015162000532601f89168262000426565b8355505b6001600288020188555050505b505050505050565b600073ffffffffffffffffffffffffffffffffffffffff82169050919050565b600062000578826200054b565b9050919050565b6200058a816200056b565b82525050565b6000602082019050620005a760008301846200057f565b92915050565b61266180620005bd6000396000f3fe608060405234801561001057600080fd5b506004361061010b5760003560e01c8063715018a6116100a2578063b88d4fde11610071578063b88d4fde146102a4578063c87b56dd146102c0578063d85d3d27146102f0578063e985e9c514610320578063f2fde38b146103505761010b565b8063715018a6146102425780638da5cb5b1461024c57806395d89b411461026a578063a22cb465146102885761010b565b806323b872dd116100de57806323b872dd146101aa57806342842e0e146101c65780636352211e146101e257806370a08231146102125761010b565b806301ffc9a71461011057806306fdde0314610140578063081812fc1461015e578063095ea7b31461018e575b600080fd5b61012a60048036038101906101259190611acc565b61036c565b6040516101379190611b14565b60405180910390f35b6101486103cd565b6040516101559190611bbf565b60405180910390f35b61017860048036038101906101739190611c17565b61045f565b6040516101859190611c85565b60405180910390f35b6101a860048036038101906101a39190611ccc565b61047b565b005b6101c460048036038101906101bf9190611d0c565b610491565b005b6101e060048036038101906101db9190611d0c565b610593565b005b6101fc60048036038101906101f79190611c17565b6105b3565b6040516102099190611c85565b60405180910390f35b61022c60048036038101906102279190611d5f565b6105c5565b6040516102399190611d9b565b60405180910390f35b61024a61067f565b005b610254610693565b6040516102619190611c85565b60405180910390f35b6102726106bd565b60405161027f9190611bbf565b60405180910390f35b6102a2600480360381019061029d9190611de2565b61074f565b005b6102be60048036038101906102b99190611f57565b610765565b005b6102da60048036038101906102d59190611c17565b610782565b6040516102e79190611bbf565b60405180910390f35b61030a6004803603810190610305919061207b565b610895565b6040516103179190611d9b565b60405180910390f35b61033a600480360381019061033591906120c4565b6108d7565b6040516103479190611b14565b60405180910390f35b61036a60048036038101906103659190611d5f565b61096b565b005b6000634906490660e01b7bffffffffffffffffffffffffffffffffffffffffffffffffffffffff1916827bffffffffffffffffffffffffffffffffffffffffffffffffffffffff191614806103c657506103c5826109f1565b5b9050919050565b6060600080546103dc90612133565b80601f016020809104026020016040519081016040528092919081815260200182805461040890612133565b80156104555780601f1061042a57610100808354040283529160200191610455565b820191906000526020600020905b81548152906001019060200180831161043857829003601f168201915b5050505050905090565b600061046a82610ad3565b5061047482610b5b565b9050919050565b61048d8282610488610b98565b610ba0565b5050565b600073ffffffffffffffffffffffffffffffffffffffff168273ffffffffffffffffffffffffffffffffffffffff16036105035760006040517f64a0ae920000000000000000000000000000000000000000000000000000000081526004016104fa9190611c85565b60405180910390fd5b60006105178383610512610b98565b610bb2565b90508373ffffffffffffffffffffffffffffffffffffffff168173ffffffffffffffffffffffffffffffffffffffff161461058d578382826040517f64283d7b00000000000000000000000000000000000000000000000000000000815260040161058493929190612164565b60405180910390fd5b50505050565b6105ae83838360405180602001604052806000815250610765565b505050565b60006105be82610ad3565b9050919050565b60008073ffffffffffffffffffffffffffffffffffffffff168273ffffffffffffffffffffffffffffffffffffffff16036106385760006040517f89c62b6400000000000000000000000000000000000000000000000000000000815260040161062f9190611c85565b60405180910390fd5b600360008373ffffffffffffffffffffffffffffffffffffffff1673ffffffffffffffffffffffffffffffffffffffff168152602001908152602001600020549050919050565b610687610dcc565b6106916000610e53565b565b6000600760009054906101000a900473ffffffffffffffffffffffffffffffffffffffff16905090565b6060600180546106cc90612133565b80601f01602080910402602001604051908101604052809291908181526020018280546106f890612133565b80156107455780601f1061071a57610100808354040283529160200191610745565b820191906000526020600020905b81548152906001019060200180831161072857829003601f168201915b5050505050905090565b61076161075a610b98565b8383610f19565b5050565b610770848484610491565b61077c84848484611088565b50505050565b606061078d82610ad3565b5060006006600084815260200190815260200160002080546107ae90612133565b80601f01602080910402602001604051908101604052809291908181526020018280546107da90612133565b80156108275780601f106107fc57610100808354040283529160200191610827565b820191906000526020600020905b81548152906001019060200180831161080a57829003601f168201915b50505050509050600061083861123f565b9050600081510361084d578192505050610890565b60008251111561088257808260405160200161086a9291906121d7565b60405160208183030381529060405292505050610890565b61088b84611256565b925050505b919050565b600061089f610dcc565b6000600860008154809291906108b49061222a565b9190505590506108c433826112bf565b6108ce81846112dd565b80915050919050565b6000600560008473ffffffffffffffffffffffffffffffffffffffff1673ffffffffffffffffffffffffffffffffffffffff16815260200190815260200160002060008373ffffffffffffffffffffffffffffffffffffffff1673ffffffffffffffffffffffffffffffffffffffff16815260200190815260200160002060009054906101000a900460ff16905092915050565b610973610dcc565b600073ffffffffffffffffffffffffffffffffffffffff168173ffffffffffffffffffffffffffffffffffffffff16036109e55760006040517f1e4fbdf70000000000000000000000000000000000000000000000000000000081526004016109dc9190611c85565b60405180910390fd5b6109ee81610e53565b50565b60007f80ac58cd000000000000000000000000000000000000000000000000000000007bffffffffffffffffffffffffffffffffffffffffffffffffffffffff1916827bffffffffffffffffffffffffffffffffffffffffffffffffffffffff19161480610abc57507f5b5e139f000000000000000000000000000000000000000000000000000000007bffffffffffffffffffffffffffffffffffffffffffffffffffffffff1916827bffffffffffffffffffffffffffffffffffffffffffffffffffffffff1916145b80610acc5750610acb82611339565b5b9050919050565b600080610adf836113a3565b9050600073ffffffffffffffffffffffffffffffffffffffff168173ffffffffffffffffffffffffffffffffffffffff1603610b5257826040517f7e273289000000000000000000000000000000000000000000000000000000008152600401610b499190611d9b565b60405180910390fd5b80915050919050565b60006004600083815260200190815260200160002060009054906101000a900473ffffffffffffffffffffffffffffffffffffffff169050919050565b600033905090565b610bad83838360016113e0565b505050565b600080610bbe846113a3565b9050600073ffffffffffffffffffffffffffffffffffffffff168373ffffffffffffffffffffffffffffffffffffffff1614610c0057610bff8184866115a5565b5b600073ffffffffffffffffffffffffffffffffffffffff168173ffffffffffffffffffffffffffffffffffffffff1614610c9157610c426000856000806113e0565b6001600360008373ffffffffffffffffffffffffffffffffffffffff1673ffffffffffffffffffffffffffffffffffffffff168152602001908152602001600020600082825403925050819055505b600073ffffffffffffffffffffffffffffffffffffffff168573ffffffffffffffffffffffffffffffffffffffff1614610d14576001600360008773ffffffffffffffffffffffffffffffffffffffff1673ffffffffffffffffffffffffffffffffffffffff168152602001908152602001600020600082825401925050819055505b846002600086815260200190815260200160002060006101000a81548173ffffffffffffffffffffffffffffffffffffffff021916908373ffffffffffffffffffffffffffffffffffffffff160217905550838573ffffffffffffffffffffffffffffffffffffffff168273ffffffffffffffffffffffffffffffffffffffff167fddf252ad1be2c89b69c2b068fc378daa952ba7f163c4a11628f55a4df523b3ef60405160405180910390a4809150509392505050565b610dd4610b98565b73ffffffffffffffffffffffffffffffffffffffff16610df2610693565b73ffffffffffffffffffffffffffffffffffffffff1614610e5157610e15610b98565b6040517f118cdaa7000000000000000000000000000000000000000000000000000000008152600401610e489190611c85565b60405180910390fd5b565b6000600760009054906101000a900473ffffffffffffffffffffffffffffffffffffffff16905081600760006101000a81548173ffffffffffffffffffffffffffffffffffffffff021916908373ffffffffffffffffffffffffffffffffffffffff1602179055508173ffffffffffffffffffffffffffffffffffffffff168173ffffffffffffffffffffffffffffffffffffffff167f8be0079c531659141344cd1fd0a4f28419497f9722a3daafe3b4186f6b6457e060405160405180910390a35050565b600073ffffffffffffffffffffffffffffffffffffffff168273ffffffffffffffffffffffffffffffffffffffff1603610f8a57816040517f5b08ba18000000000000000000000000000000000000000000000000000000008152600401610f819190611c85565b60405180910390fd5b80600560008573ffffffffffffffffffffffffffffffffffffffff1673ffffffffffffffffffffffffffffffffffffffff16815260200190815260200160002060008473ffffffffffffffffffffffffffffffffffffffff1673ffffffffffffffffffffffffffffffffffffffff16815260200190815260200160002060006101000a81548160ff0219169083151502179055508173ffffffffffffffffffffffffffffffffffffffff168373ffffffffffffffffffffffffffffffffffffffff167f17307eab39ab6107e8899845ad3d59bd9653f200f220920489ca2b5937696c318360405161107b9190611b14565b60405180910390a3505050565b60008373ffffffffffffffffffffffffffffffffffffffff163b1115611239578273ffffffffffffffffffffffffffffffffffffffff1663150b7a026110cc610b98565b8685856040518563ffffffff1660e01b81526004016110ee94939291906122c7565b6020604051808303816000875af192505050801561112a57506040513d601f19601f820116820180604052508101906111279190612328565b60015b6111ae573d806000811461115a576040519150601f19603f3d011682016040523d82523d6000602084013e61115f565b606091505b5060008151036111a657836040517f64a0ae9200000000000000000000000000000000000000000000000000000000815260040161119d9190611c85565b60405180910390fd5b805181602001fd5b63150b7a0260e01b7bffffffffffffffffffffffffffffffffffffffffffffffffffffffff1916817bffffffffffffffffffffffffffffffffffffffffffffffffffffffff19161461123757836040517f64a0ae9200000000000000000000000000000000000000000000000000000000815260040161122e9190611c85565b60405180910390fd5b505b50505050565b606060405180602001604052806000815250905090565b606061126182610ad3565b50600061126c61123f565b9050600081511161128c57604051806020016040528060008152506112b7565b8061129684611669565b6040516020016112a79291906121d7565b6040516020818303038152906040525b915050919050565b6112d9828260405180602001604052806000815250611737565b5050565b806006600084815260200190815260200160002090816112fd9190612501565b507ff8e1a15aba9398e019f0b49df1a4fde98ee17ae345cb5f6b5e2c27f5033e8ce78260405161132d9190611d9b565b60405180910390a15050565b60007f01ffc9a7000000000000000000000000000000000000000000000000000000007bffffffffffffffffffffffffffffffffffffffffffffffffffffffff1916827bffffffffffffffffffffffffffffffffffffffffffffffffffffffff1916149050919050565b60006002600083815260200190815260200160002060009054906101000a900473ffffffffffffffffffffffffffffffffffffffff169050919050565b80806114195750600073ffffffffffffffffffffffffffffffffffffffff168273ffffffffffffffffffffffffffffffffffffffff1614155b1561154d57600061142984610ad3565b9050600073ffffffffffffffffffffffffffffffffffffffff168373ffffffffffffffffffffffffffffffffffffffff161415801561149457508273ffffffffffffffffffffffffffffffffffffffff168173ffffffffffffffffffffffffffffffffffffffff1614155b80156114a757506114a581846108d7565b155b156114e957826040517fa9fbf51f0000000000000000000000000000000000000000000000000000000081526004016114e09190611c85565b60405180910390fd5b811561154b57838573ffffffffffffffffffffffffffffffffffffffff168273ffffffffffffffffffffffffffffffffffffffff167f8c5be1e5ebec7d5bd14f71427d1e84f3dd0314c0f7b2291e5b200ac8c7c3b92560405160405180910390a45b505b836004600085815260200190815260200160002060006101000a81548173ffffffffffffffffffffffffffffffffffffffff021916908373ffffffffffffffffffffffffffffffffffffffff16021790555050505050565b6115b0838383611753565b61166457600073ffffffffffffffffffffffffffffffffffffffff168373ffffffffffffffffffffffffffffffffffffffff160361162557806040517f7e27328900000000000000000000000000000000000000000000000000000000815260040161161c9190611d9b565b60405180910390fd5b81816040517f177e802f00000000000000000000000000000000000000000000000000000000815260040161165b9291906125d3565b60405180910390fd5b505050565b60606000600161167884611814565b01905060008167ffffffffffffffff81111561169757611696611e2c565b5b6040519080825280601f01601f1916602001820160405280156116c95781602001600182028036833780820191505090505b509050600082602001820190505b60011561172c578080600190039150507f3031323334353637383961626364656600000000000000000000000000000000600a86061a8153600a85816117205761171f6125fc565b5b049450600085036116d7575b819350505050919050565b6117418383611967565b61174e6000848484611088565b505050565b60008073ffffffffffffffffffffffffffffffffffffffff168373ffffffffffffffffffffffffffffffffffffffff161415801561180b57508273ffffffffffffffffffffffffffffffffffffffff168473ffffffffffffffffffffffffffffffffffffffff1614806117cc57506117cb84846108d7565b5b8061180a57508273ffffffffffffffffffffffffffffffffffffffff166117f283610b5b565b73ffffffffffffffffffffffffffffffffffffffff16145b5b90509392505050565b600080600090507a184f03e93ff9f4daa797ed6e38ed64bf6a1f0100000000000000008310611872577a184f03e93ff9f4daa797ed6e38ed64bf6a1f0100000000000000008381611868576118676125fc565b5b0492506040810190505b6d04ee2d6d415b85acef810000000083106118af576d04ee2d6d415b85acef810000000083816118a5576118a46125fc565b5b0492506020810190505b662386f26fc1000083106118de57662386f26fc1000083816118d4576118d36125fc565b5b0492506010810190505b6305f5e1008310611907576305f5e10083816118fd576118fc6125fc565b5b0492506008810190505b612710831061192c576127108381611922576119216125fc565b5b0492506004810190505b6064831061194f5760648381611945576119446125fc565b5b0492506002810190505b600a831061195e576001810190505b80915050919050565b600073ffffffffffffffffffffffffffffffffffffffff168273ffffffffffffffffffffffffffffffffffffffff16036119d95760006040517f64a0ae920000000000000000000000000000000000000000000000000000000081526004016119d09190611c85565b60405180910390fd5b60006119e783836000610bb2565b9050600073ffffffffffffffffffffffffffffffffffffffff168173ffffffffffffffffffffffffffffffffffffffff1614611a5b5760006040517f73c6ac6e000000000000000000000000000000000000000000000000000000008152600401611a529190611c85565b60405180910390fd5b505050565b6000604051905090565b600080fd5b600080fd5b60007fffffffff0000000000000000000000000000000000000000000000000000000082169050919050565b611aa981611a74565b8114611ab457600080fd5b50565b600081359050611ac681611aa0565b92915050565b600060208284031215611ae257611ae1611a6a565b5b6000611af084828501611ab7565b91505092915050565b60008115159050919050565b611b0e81611af9565b82525050565b6000602082019050611b296000830184611b05565b92915050565b600081519050919050565b600082825260208201905092915050565b60005b83811015611b69578082015181840152602081019050611b4e565b60008484015250505050565b6000601f19601f8301169050919050565b6000611b9182611b2f565b611b9b8185611b3a565b9350611bab818560208601611b4b565b611bb481611b75565b840191505092915050565b60006020820190508181036000830152611bd98184611b86565b905092915050565b6000819050919050565b611bf481611be1565b8114611bff57600080fd5b50565b600081359050611c1181611beb565b92915050565b600060208284031215611c2d57611c2c611a6a565b5b6000611c3b84828501611c02565b91505092915050565b600073ffffffffffffffffffffffffffffffffffffffff82169050919050565b6000611c6f82611c44565b9050919050565b611c7f81611c64565b82525050565b6000602082019050611c9a6000830184611c76565b92915050565b611ca981611c64565b8114611cb457600080fd5b50565b600081359050611cc681611ca0565b92915050565b60008060408385031215611ce357611ce2611a6a565b5b6000611cf185828601611cb7565b9250506020611d0285828601611c02565b9150509250929050565b600080600060608486031215611d2557611d24611a6a565b5b6000611d3386828701611cb7565b9350506020611d4486828701611cb7565b9250506040611d5586828701611c02565b9150509250925092565b600060208284031215611d7557611d74611a6a565b5b6000611d8384828501611cb7565b91505092915050565b611d9581611be1565b82525050565b6000602082019050611db06000830184611d8c565b92915050565b611dbf81611af9565b8114611dca57600080fd5b50565b600081359050611ddc81611db6565b92915050565b60008060408385031215611df957611df8611a6a565b5b6000611e0785828601611cb7565b9250506020611e1885828601611dcd565b9150509250929050565b600080fd5b600080fd5b7f4e487b7100000000000000000000000000000000000000000000000000000000600052604160045260246000fd5b611e6482611b75565b810181811067ffffffffffffffff82111715611e8357611e82611e2c565b5b80604052505050565b6000611e96611a60565b9050611ea28282611e5b565b919050565b600067ffffffffffffffff821115611ec257611ec1611e2c565b5b611ecb82611b75565b9050602081019050919050565b82818337600083830152505050565b6000611efa611ef584611ea7565b611e8c565b905082815260208101848484011115611f1657611f15611e27565b5b611f21848285611ed8565b509392505050565b600082601f830112611f3e57611f3d611e22565b5b8135611f4e848260208601611ee7565b91505092915050565b60008060008060808587031215611f7157611f70611a6a565b5b6000611f7f87828801611cb7565b9450506020611f9087828801611cb7565b9350506040611fa187828801611c02565b925050606085013567ffffffffffffffff811115611fc257611fc1611a6f565b5b611fce87828801611f29565b91505092959194509250565b600067ffffffffffffffff821115611ff557611ff4611e2c565b5b611ffe82611b75565b9050602081019050919050565b600061201e61201984611fda565b611e8c565b90508281526020810184848401111561203a57612039611e27565b5b612045848285611ed8565b509392505050565b600082601f83011261206257612061611e22565b5b813561207284826020860161200b565b91505092915050565b60006020828403121561209157612090611a6a565b5b600082013567ffffffffffffffff8111156120af576120ae611a6f565b5b6120bb8482850161204d565b91505092915050565b600080604083850312156120db576120da611a6a565b5b60006120e985828601611cb7565b92505060206120fa85828601611cb7565b9150509250929050565b7f4e487b7100000000000000000000000000000000000000000000000000000000600052602260045260246000fd5b6000600282049050600182168061214b57607f821691505b60208210810361215e5761215d612104565b5b50919050565b60006060820190506121796000830186611c76565b6121866020830185611d8c565b6121936040830184611c76565b949350505050565b600081905092915050565b60006121b182611b2f565b6121bb818561219b565b93506121cb818560208601611b4b565b80840191505092915050565b60006121e382856121a6565b91506121ef82846121a6565b91508190509392505050565b7f4e487b7100000000000000000000000000000000000000000000000000000000600052601160045260246000fd5b600061223582611be1565b91507fffffffffffffffffffffffffffffffffffffffffffffffffffffffffffffffff8203612267576122666121fb565b5b600182019050919050565b600081519050919050565b600082825260208201905092915050565b600061229982612272565b6122a3818561227d565b93506122b3818560208601611b4b565b6122bc81611b75565b840191505092915050565b60006080820190506122dc6000830187611c76565b6122e96020830186611c76565b6122f66040830185611d8c565b8181036060830152612308818461228e565b905095945050505050565b60008151905061232281611aa0565b92915050565b60006020828403121561233e5761233d611a6a565b5b600061234c84828501612313565b91505092915050565b60008190508160005260206000209050919050565b60006020601f8301049050919050565b600082821b905092915050565b6000600883026123b77fffffffffffffffffffffffffffffffffffffffffffffffffffffffffffffffff8261237a565b6123c1868361237a565b95508019841693508086168417925050509392505050565b6000819050919050565b60006123fe6123f96123f484611be1565b6123d9565b611be1565b9050919050565b6000819050919050565b612418836123e3565b61242c61242482612405565b848454612387565b825550505050565b600090565b612441612434565b61244c81848461240f565b505050565b5b8181101561247057612465600082612439565b600181019050612452565b5050565b601f8211156124b55761248681612355565b61248f8461236a565b8101602085101561249e578190505b6124b26124aa8561236a565b830182612451565b50505b505050565b600082821c905092915050565b60006124d8600019846008026124ba565b1980831691505092915050565b60006124f183836124c7565b9150826002028217905092915050565b61250a82611b2f565b67ffffffffffffffff81111561252357612522611e2c565b5b61252d8254612133565b612538828285612474565b600060209050601f83116001811461256b5760008415612559578287015190505b61256385826124e5565b8655506125cb565b601f19841661257986612355565b60005b828110156125a15784890151825560018201915060208501945060208101905061257c565b868310156125be57848901516125ba601f8916826124c7565b8355505b6001600288020188555050505b505050505050565b60006040820190506125e86000830185611c76565b6125f56020830184611d8c565b9392505050565b7f4e487b7100000000000000000000000000000000000000000000000000000000600052601260045260246000fdfea2646970667358221220590b1169d71cbcd4ccf83390ace07f743f224c56866336ecae50a38b2612c9be64736f6c63430008180033",
  "linkReferences": {},
  "deployedLinkReferences": {}
}