{
  "_format": "hh-sol-artifact-1",
  "contractName": "NftGatedEvent",
  "sourceName": "contracts/NftGatedEvent.sol",
  "abi": [
    {
      "inputs": [
        {
          "internalType": "address",
          "name": "_nftTokenAddress",
          "type": "address"
        }
      ],
      "stateMutability": "nonpayable",
      "type": "constructor"
    },
    {
      "inputs": [],
      "name": "AddressZeroDetected",
      "type": "error"
    },
    {
      "inputs": [],
      "name": "YouHaveToMintAnNFT",
      "type": "error"
    },
    {
      "anonymous": false,
      "inputs": [
        {
          "indexed": false,
          "internalType": "string",
          "name": "name",
          "type": "string"
        },
        {
          "indexed": false,
          "internalType": "string",
          "name": "descriptionOfEvent",
          "type": "string"
        }
      ],
      "name": "EventSuccessfulCreated",
      "type": "event"
    },
    {
      "anonymous": false,
      "inputs": [
        {
          "indexed": false,
          "internalType": "string",
          "name": "name",
          "type": "string"
        },
        {
          "indexed": false,
          "internalType": "string",
          "name": "email",
          "type": "string"
        }
      ],
      "name": "RegistrationSuccesful",
      "type": "event"
    },
    {
      "inputs": [
        {
          "internalType": "string",
          "name": "_name",
          "type": "string"
        },
        {
          "internalType": "string",
          "name": "_description",
          "type": "string"
        },
        {
          "internalType": "string",
          "name": "_doE",
          "type": "string"
        },
        {
          "internalType": "string",
          "name": "_timeOfEvent",
          "type": "string"
        },
        {
          "internalType": "uint256",
          "name": "_noOfAttendeesExpected",
          "type": "uint256"
        }
      ],
      "name": "createEvent",
      "outputs": [],
      "stateMutability": "nonpayable",
      "type": "function"
    },
    {
      "inputs": [],
      "name": "nftTokenAddress",
      "outputs": [
        {
          "internalType": "address",
          "name": "",
          "type": "address"
        }
      ],
      "stateMutability": "view",
      "type": "function"
    },
    {
      "inputs": [
        {
          "internalType": "address",
          "name": "_creator",
          "type": "address"
        },
        {
          "internalType": "uint256",
          "name": "_eventId",
          "type": "uint256"
        },
        {
          "internalType": "string",
          "name": "_name",
          "type": "string"
        },
        {
          "internalType": "string",
          "name": "_email",
          "type": "string"
        }
      ],
      "name": "registerForEvent",
      "outputs": [],
      "stateMutability": "nonpayable",
      "type": "function"
    }
  ],
  "bytecode": "0x60806040523480156200001157600080fd5b50604051620010673803806200106783398181016040528101906200003791906200015a565b600073ffffffffffffffffffffffffffffffffffffffff168173ffffffffffffffffffffffffffffffffffffffff1603620000a9576040517f08c379a0000000000000000000000000000000000000000000000000000000008152600401620000a090620001ed565b60405180910390fd5b806000806101000a81548173ffffffffffffffffffffffffffffffffffffffff021916908373ffffffffffffffffffffffffffffffffffffffff160217905550506200020f565b600080fd5b600073ffffffffffffffffffffffffffffffffffffffff82169050919050565b60006200012282620000f5565b9050919050565b620001348162000115565b81146200014057600080fd5b50565b600081519050620001548162000129565b92915050565b600060208284031215620001735762000172620000f0565b5b6000620001838482850162000143565b91505092915050565b600082825260208201905092915050565b7f41646472657373205a65726f2044657465637465640000000000000000000000600082015250565b6000620001d56015836200018c565b9150620001e2826200019d565b602082019050919050565b600060208201905081810360008301526200020881620001c6565b9050919050565b610e48806200021f6000396000f3fe608060405234801561001057600080fd5b50600436106100415760003560e01c8063059cd0cd14610046578063bdcf5b8e14610064578063ce34a34014610080575b600080fd5b61004e61009c565b60405161005b9190610635565b60405180910390f35b61007e600480360381019061007991906107e0565b6100c0565b005b61009a600480360381019061009591906108f7565b610434565b005b60008054906101000a900473ffffffffffffffffffffffffffffffffffffffff1681565b600073ffffffffffffffffffffffffffffffffffffffff163373ffffffffffffffffffffffffffffffffffffffff1603610126576040517f287170f900000000000000000000000000000000000000000000000000000000815260040160405180910390fd5b60008060009054906101000a900473ffffffffffffffffffffffffffffffffffffffff16905060018173ffffffffffffffffffffffffffffffffffffffff166370a08231336040518263ffffffff1660e01b81526004016101879190610635565b602060405180830381865afa1580156101a4573d6000803e3d6000fd5b505050506040513d601f19601f820116820180604052508101906101c891906109ab565b1015610200576040517f7085b25e00000000000000000000000000000000000000000000000000000000815260040160405180910390fd5b6000600160003373ffffffffffffffffffffffffffffffffffffffff1673ffffffffffffffffffffffffffffffffffffffff168152602001908152602001600020805490509050600081111561031d57808061025b90610a07565b9150506000600160003373ffffffffffffffffffffffffffffffffffffffff1673ffffffffffffffffffffffffffffffffffffffff16815260200190815260200160002082815481106102b1576102b0610a4f565b5b90600052602060002090600702019050818160000181905550878160010190816102db9190610c95565b50868160020190816102ed9190610c95565b50858160030190816102ff9190610c95565b50848160040190816103119190610c95565b50838160050181905550505b808061032890610a07565b9150506000600160003373ffffffffffffffffffffffffffffffffffffffff1673ffffffffffffffffffffffffffffffffffffffff168152602001908152602001600020828154811061037e5761037d610a4f565b5b90600052602060002090600702019050818160000181905550818160000181905550878160010190816103b19190610c95565b50868160020190816103c39190610c95565b50858160030190816103d59190610c95565b50848160040190816103e79190610c95565b508381600501819055507f9fb0605cd723fced96623779510ba70a0f08a9cb5d11c29daf6782ea8ee7bf4a8888604051610422929190610ddb565b60405180910390a15050505050505050565b600073ffffffffffffffffffffffffffffffffffffffff163373ffffffffffffffffffffffffffffffffffffffff160361049a576040517f287170f900000000000000000000000000000000000000000000000000000000815260040160405180910390fd5b600160008573ffffffffffffffffffffffffffffffffffffffff1673ffffffffffffffffffffffffffffffffffffffff16815260200190815260200160002083815481106104eb576104ea610a4f565b5b9060005260206000209060070201600601339080600181540180825580915050600190039060005260206000200160009091909190916101000a81548173ffffffffffffffffffffffffffffffffffffffff021916908373ffffffffffffffffffffffffffffffffffffffff1602179055506001600260003373ffffffffffffffffffffffffffffffffffffffff1673ffffffffffffffffffffffffffffffffffffffff16815260200190815260200160002060006101000a81548160ff0219169083151502179055507faff6c973356b1e8117b7445b9a0b81f338ca90fee0694fd84979e79f6bffba4482826040516105e6929190610ddb565b60405180910390a150505050565b600073ffffffffffffffffffffffffffffffffffffffff82169050919050565b600061061f826105f4565b9050919050565b61062f81610614565b82525050565b600060208201905061064a6000830184610626565b92915050565b6000604051905090565b600080fd5b600080fd5b600080fd5b600080fd5b6000601f19601f8301169050919050565b7f4e487b7100000000000000000000000000000000000000000000000000000000600052604160045260246000fd5b6106b78261066e565b810181811067ffffffffffffffff821117156106d6576106d561067f565b5b80604052505050565b60006106e9610650565b90506106f582826106ae565b919050565b600067ffffffffffffffff8211156107155761071461067f565b5b61071e8261066e565b9050602081019050919050565b82818337600083830152505050565b600061074d610748846106fa565b6106df565b90508281526020810184848401111561076957610768610669565b5b61077484828561072b565b509392505050565b600082601f83011261079157610790610664565b5b81356107a184826020860161073a565b91505092915050565b6000819050919050565b6107bd816107aa565b81146107c857600080fd5b50565b6000813590506107da816107b4565b92915050565b600080600080600060a086880312156107fc576107fb61065a565b5b600086013567ffffffffffffffff81111561081a5761081961065f565b5b6108268882890161077c565b955050602086013567ffffffffffffffff8111156108475761084661065f565b5b6108538882890161077c565b945050604086013567ffffffffffffffff8111156108745761087361065f565b5b6108808882890161077c565b935050606086013567ffffffffffffffff8111156108a1576108a061065f565b5b6108ad8882890161077c565b92505060806108be888289016107cb565b9150509295509295909350565b6108d481610614565b81146108df57600080fd5b50565b6000813590506108f1816108cb565b92915050565b600080600080608085870312156109115761091061065a565b5b600061091f878288016108e2565b9450506020610930878288016107cb565b935050604085013567ffffffffffffffff8111156109515761095061065f565b5b61095d8782880161077c565b925050606085013567ffffffffffffffff81111561097e5761097d61065f565b5b61098a8782880161077c565b91505092959194509250565b6000815190506109a5816107b4565b92915050565b6000602082840312156109c1576109c061065a565b5b60006109cf84828501610996565b91505092915050565b7f4e487b7100000000000000000000000000000000000000000000000000000000600052601160045260246000fd5b6000610a12826107aa565b91507fffffffffffffffffffffffffffffffffffffffffffffffffffffffffffffffff8203610a4457610a436109d8565b5b600182019050919050565b7f4e487b7100000000000000000000000000000000000000000000000000000000600052603260045260246000fd5b600081519050919050565b7f4e487b7100000000000000000000000000000000000000000000000000000000600052602260045260246000fd5b60006002820490506001821680610ad057607f821691505b602082108103610ae357610ae2610a89565b5b50919050565b60008190508160005260206000209050919050565b60006020601f8301049050919050565b600082821b905092915050565b600060088302610b4b7fffffffffffffffffffffffffffffffffffffffffffffffffffffffffffffffff82610b0e565b610b558683610b0e565b95508019841693508086168417925050509392505050565b6000819050919050565b6000610b92610b8d610b88846107aa565b610b6d565b6107aa565b9050919050565b6000819050919050565b610bac83610b77565b610bc0610bb882610b99565b848454610b1b565b825550505050565b600090565b610bd5610bc8565b610be0818484610ba3565b505050565b5b81811015610c0457610bf9600082610bcd565b600181019050610be6565b5050565b601f821115610c4957610c1a81610ae9565b610c2384610afe565b81016020851015610c32578190505b610c46610c3e85610afe565b830182610be5565b50505b505050565b600082821c905092915050565b6000610c6c60001984600802610c4e565b1980831691505092915050565b6000610c858383610c5b565b9150826002028217905092915050565b610c9e82610a7e565b67ffffffffffffffff811115610cb757610cb661067f565b5b610cc18254610ab8565b610ccc828285610c08565b600060209050601f831160018114610cff5760008415610ced578287015190505b610cf78582610c79565b865550610d5f565b601f198416610d0d86610ae9565b60005b82811015610d3557848901518255600182019150602085019450602081019050610d10565b86831015610d525784890151610d4e601f891682610c5b565b8355505b6001600288020188555050505b505050505050565b600082825260208201905092915050565b60005b83811015610d96578082015181840152602081019050610d7b565b60008484015250505050565b6000610dad82610a7e565b610db78185610d67565b9350610dc7818560208601610d78565b610dd08161066e565b840191505092915050565b60006040820190508181036000830152610df58185610da2565b90508181036020830152610e098184610da2565b9050939250505056fea26469706673582212209b8bdb68fd5afdfb88a334060092a00c9021e4b860e51e8eddfd009af19cd99b64736f6c63430008180033",
  "linkReferences": {},
  "deployedLinkReferences": {}
}